:020000020000FC
:1000000065C072C17FC149C18BC18AC189C188C124
:1000100087C186C14714D1F0491431F04394A9E651
:1000200002E310E044D012C000916900003071F486
:1000300016B322E012231695A12E4424382C00E496
:100040001BB7102B1BBF1AB710271ABF08955714E0
:1000500099F0591431F05394A9E602E310E027D047
:100060000BC000916900003039F416B324E012236C
:1000700016951695612E552400E21BB7102B1BBF59
:100080001AB710271ABF08950FB510E4012B0FBD42
:10009000A0E608ED14E021E00AD00895A0E60CE700
:1000A00010E005D0A6E600E613E101D00895222372
:1000B00031F4F8942D930D931C93789406C0139605
:1000C000F8941E930E932E93789408950FE90DBF24
:1000D00009E107BB0AE108BB00E811E006BD16BD57
:1000E000002709BF0FBD0FEF06BF02E003BF0024CA
:1000F00011242224A6B202E0A022A6943324442490
:1001000066B204E06022669466945524882421E057
:10011000822E22E0922E22272093600020936300FB
:10012000209366002093690002E019B7102B19BFD5
:1001300004E015B3102B15BB01E015B7102B15BF4C
:1001400000E61BB7102B1BBF1AB710271ABF0027DA
:1001500008BF7894181411F004D001C040D077D0B3
:10016000F9CF281411F003D001C01FD008956FDF1C
:100170006814D1F04FDF3814B9F43324A81451F0C7
:1001800021E0A0E60CE710E092DF0FB510E4012BB0
:100190000FBD0AC006B317EF012308BB239421E06B
:1001A000A6E600E613E183DF089551DF681461F4E9
:1001B000222413940FEE16B3102318BB20E02093D3
:1001C0006300209366000AC000916600003031F49D
:1001D000222406B318E0012B08BB56DF089528142B
:1001E00011F003D001C022D0089531DF6814D9F492
:1001F00011DF3814D1F43324A81451F021E0A0E623
:100200000CE710E054DF0FB510E4012B0FBD0DC05B
:1002100006B318E0012B08BB239421E0A6E600E614
:1002200013E145DF02C030DFF3CF089510DF67141C
:1002300039F42224112400E116B3102B18BB06C098
:1002400000916600003011F41FDFF3CF0895009194
:100250006000002321F40FB51FEB01230FBD17141D
:10026000D9F4009163000023B9F4A3E60CE612E090
:1002700021E01DDF00E116B3102718BB681461F4FC
:100280001023103149F4A0E60CE612E021E00FDF64
:100290000FB510E4012B0FBD08950F930FB70F9307
:1002A000CF93DF93AF938F939F93C0E6DD2700201A
:1002B00081F0A9E6A3958881882341F089819A81FC
:1002C000019789839A83892B09F488832396CA1717
:1002D00094F391E009269F918F91AF91DF91CF9197
:1002E0000F910FBF0F9118950F930FB70F931F9397
:1002F000439400E41BB710271BBF1F910F910FBF42
:100300000F9118950F930FB70F931F93539400E21B
:100310001BB710271BBF1F910F910FBF0F9118958F
:0203200018952E
:00000001FF
