:020000020000FC
:1000000077C07EC18FC150C19DC19CC19BC19AC1A7
:1000100099C198C1222331F4F8942D930D931C9328
:10002000789406C01396F8941E930E932E937894AA
:100030000895009170000030F1F0023041F0039516
:1000400000937000AAE602E310E0E4DF14C0009120
:100050006A00003081F416B322E012231695109343
:100060006F0000270093700000E41BB7102B1BBF2C
:100070001AB710271ABF0895009171000030C1F01F
:10008000023041F0039500937100AAE602E310E00C
:10009000C1DF0EC000916A00003051F416B324E0B5
:1000A0001223169516951093720000270093710085
:1000B00000E21BB7102B1BBF1AB710271ABF0895F9
:1000C0000FB510E4012B0FBDA1E608ED14E021E00F
:1000D000A1DF002700936E0000936D000895A1E654
:1000E0000CE710E097DFA7E600E613E193DF089541
:1000F0000FE90DBF09E107BB0AE108BB00E811E009
:1001000006BD16BD002709BF0FBD0FEF06BF02E0F9
:1001100003BF22272093600020936D0020936E0080
:1001200020936F0020937000209372002093710041
:1001300020936100209364002093670020936A005D
:1001400002E019B7102B19BF04E015B3102B15BB33
:1001500001E015B7102B15BF00E61BB7102B1BBF16
:100160001AB710271ABF002708BF789430916D0086
:10017000313011F004D001C041D07CD0F7CF3091A4
:100180006E00313011F003D001C017D0089551DF57
:1001900000916F00013081F4002700936F000FB5CC
:1001A00010E4012B0FBD21E09ADF06B317EF012306
:1001B00008BB01E000936E0008955EDF00917200BD
:1001C000013081F4002700936E00039500936D00C9
:1001D0000FEE16B3102318BB20E020936400209389
:1001E00067000BC000916700003039F400936E0087
:1001F00006B318E0012B08BB63DF089530916E0051
:10020000313011F003D001C01FD0089535DF0091C7
:1002100072000130B1F40DDF00916F00013099F4EC
:10022000002700936F000FB510E4012B0FBD21E0F4
:1002300056DF06B318E0012B08BB01E000936E0007
:1002400002C03EDFF6CF089517DF00917200003044
:1002500051F4002700936E0000936D000FEE16B36B
:10026000102318BB06C000916700003011F428DF8E
:10027000F0CF089500916100002321F40FB51FEB2A
:1002800001230FBD00916D00003069F400916400FE
:10029000002349F4A4E60CE612E021E0BBDE00E115
:1002A00016B3102718BB08950F930FB70F93CF9372
:1002B000DF93AF938F939F93C0E6DD27A991AA2385
:1002C00081F0AAE6A3958881882341F089819A81EB
:1002D000019789839A83892B09F488832396CA1707
:1002E00094F38091600091E08927809360009F9152
:1002F0008F91AF91DF91CF910F910FBF0F91189513
:100300000F930FB70F931F930091700001E00093BC
:10031000700000E41BB710271BBF1F910F910FBF88
:100320000F9118950F930FB70F931F9311E0109330
:10033000710000E21BB710271BBF1F910F910FBF69
:060340000F9118951895BD
:00000001FF
