:020000020000FC
:1000000064C042C14FC119C15BC15AC159C158C175
:1000100057C156C14714C9F0491431F04394A9E6B9
:1000200002E310E043D011C000916900003069F490
:1000300016B322E012231695312E442400E41BB798
:10004000102B1BBF1AB710271ABF0895571499F029
:10005000591431F05394A9E602E310E027D00BC005
:1000600000916900003039F416B324E0122316958C
:100070001695612E552400E21BB7102B1BBF1AB733
:1000800010271ABF08950FB510E4012B0FBDA0E68D
:1000900008ED14E021E00AD00895A0E60CE710E096
:1000A00005D0A6E600E613E101D00895222331F43D
:1000B000F8942D930D931C93789406C01396F8949E
:1000C0001E930E932E93789408950FE90DBF09E1C6
:1000D00007BB0AE108BB00E811E006BD16BD00271A
:1000E00009BF0FBD0FEF06BF02E003BF00241124BC
:1000F00022243324442466245524882421E0822E9B
:1001000022E0922E22272093600020936300209308
:1001100066002093690002E019B7102B19BF04E0B4
:1001200015B3102B15BB01E015B7102B15BF00E65A
:100130001BB7102B1BBF1AB710271ABF002708BF09
:100140007894181411F004D001C032D05ED0F9CFE9
:10015000281411F003D001C011D008955BDF3814CA
:1001600061F4332421E099DF0FB510E4012B0FBDBA
:1001700006B317EF012308BB2394089567DF6814C3
:1001800061F4222413940FEE16B3102318BB20E061
:1001900020936300209366000AC00091660000303F
:1001A00031F4222406B318E0012B08BB6CDF08955C
:1001B000281411F003D001C017D0089547DF681448
:1001C00081F428DF381479F4332421E066DF0FB599
:1001D00010E4012B0FBD06B318E0012B08BB2394DC
:1001E00002C051DFF8CF089531DF671439F42224BB
:1001F00011240FEE16B3102318BB06C00091660041
:10020000003011F440DFF3CF089500916000002327
:1002100021F40FB51FEB01230FBD171469F40091F2
:100220006300002349F4A3E60CE612E021E03EDF80
:1002300000E116B3102718BB08950F930FB70F9363
:10024000CF93DF93AF938F939F93C0E6DD2700207A
:1002500081F0A9E6A3958881882341F089819A815C
:10026000019789839A83892B09F488832396CA1777
:1002700094F391E009269F918F91AF91DF91CF91F7
:100280000F910FBF0F9118950F930FB70F931F93F7
:10029000439400E41BB710271BBF1F910F910FBFA2
:1002A0000F9118950F930FB70F931F93539400E27C
:1002B0001BB710271BBF1F910F910FBF0F911895F0
:0202C00018958F
:00000001FF
